:100000000C9463000C948B000C948B000C948B006C
:100010000C948B000C948B000C948B000C948B0034
:100020000C948B000C948B000C948B000C948B0024
:100030000C948B000C948B000C948B000C948B0014
:100040000C940F030C948B000C9408050C94390548
:100050000C948B000C948B000C948B000C948B00F4
:100060000C948B000C948B000000000024002700EF
:100070002A0000000000250028002B0000000000DE
:1000800023002600290004040404040404040202DA
:100090000202020203030303030301020408102007
:1000A0004080010204081020010204081020000012
:1000B0000007000201000003040600000000000029
:1000C00000000603FE0511241FBECFEFD8E0DEBFFF
:1000D000CDBF11E0A0E0B1E0E6EDF3E102C0059094
:1000E0000D92A431B107D9F711E0A4E1B1E001C04C
:1000F0001D92AD3DB107E1F710E0C6ECD0E004C0C1
:100100002297FE010E94E509C23CD107C9F70E946F
:100110003B060C9456080C9400008EBD0DB407FEEF
:10012000FDCF8EB50895CF93DF93EC01862F6883C2
:1001300079835B834A8361E00E94F3038A8161E0F3
:100140000E94F303888161E00E9417048A8161E0C4
:100150000E941704DF91CF910895EF92FF921F93B1
:10016000DF93CF9300D00F92CDB7DEB77C01162F6F
:10017000FC01808160E04A8359837B830E941704DD
:100180005981852F0E948D004A81842F0E948D0005
:100190007B81872F0E948D00812F0E948D00F701A7
:1001A000808161E00E941704F701828160E00E9473
:1001B0001704F701828161E00E9417040F900F90ED
:1001C0000F90CF91DF911F91FF90EF900895DB0189
:1001D0000D900020E9F7AD0141505040461B570BF0
:1001E000DC01ED91FC910280F381E02D09950895E9
:1001F00087E061E00E94F3038EEB91E040E052EC77
:1002000061E070E00E94800580E00E94400881E08B
:100210000E94370884E00E9445080E94180887E081
:1002200060E00E9417046091190170911A014091D9
:100230001B0150911C0184E191E00E94AD000895E2
:10024000CF93DF93EA01F9016115710581059105ED
:1002500051F410828FEF9FEFA0E0B0E08883998384
:10026000AA83BB831EC097FF0AC02FEF20839095FF
:100270008095709561957F4F8F4F9F4F02C021E011
:1002800020830E94EF089B01AC0160E070E080E0F9
:100290009AE40E9459080E94C108688379838A837E
:1002A0009B83DF91CF9108952F923F924F925F925F
:1002B0006F927F928F929F92AF92BF92CF92DF9276
:1002C000EF92FF920F931F9380911801882309F4F6
:1002D00082C10E9465033B014C01209025013090B2
:1002E0002601409027015090280162197309840962
:1002F00095092091290130912A0140912B015091BB
:100300002C01621A730A840A950A61157105810528
:100310009105F1F1E0901D01F0901E0100911F0187
:1003200010912001A80197010E94C10959016A0199
:10033000A114B104C104D10459F18091020199279B
:1003400087FD9095829FB001839F700D929F700DE5
:1003500011248091190190911A01860F971F909393
:100360001A0180931901B901CA01A80197010E94DD
:100370007B09620D731D841D951D6093250170938B
:1003800026018093270190932801DD24D39401C096
:10039000DD24611471048104910409F448C0E090E3
:1003A0002101F09022010091230110912401C40148
:1003B000B301A80197010E94C10939014A016114E2
:1003C00071048104910499F1A0910301BB27A7FD59
:1003D000B095A29FF001A39FF00DB29FF00D1124E4
:1003E00080911B0190911C018E0F9F1F90931C0107
:1003F00080931B01B901CA01A80197010E947B09E2
:100400009B01AC018091290190912A01A0912B01BF
:10041000B0912C01820F931FA41FB51F8093290157
:1004200090932A01A0932B01B0932C0103C0DD20EF
:1004300009F4D1C06091190170911A0140911B011A
:1004400050911C0184E191E00E94AD00C4C08EEB8C
:1004500091E00E941408A62E8EEB91E00E941408F1
:100460008B01682EC92E8EEB91E00E941408E62EB7
:10047000D72EB82E992E8EEB91E00E947E048A3002
:10048000910509F0AAC0FA2CA1FE03C087E061E043
:1004900002C087E060E00E941704F2FE42C0809232
:1004A0001801B801862D9C2D4DE151E022E031E08C
:1004B0000E9420016E2D7D2D8B2D992D41E251E062
:1004C00023E031E00E9420010E94650320911D017C
:1004D00030911E0140911F01509120011B012C0100
:1004E000221A330A440A550A209225013092260125
:1004F0004092270150922801209121013091220140
:100500004091230150912401621B730B840B950BC6
:100510006093290170932A0180932B0190932C0101
:1005200011C010921801B8010093190170931A01BB
:100530004E2D5D2DE0921B01D0921C0184E191E0D3
:100540000E94AD00F0FE49C08EEB91E06A2D4AE0BA
:1005500050E00E9418078EEB91E060E071E00E948D
:10056000E7008EEB91E0A801662D7C2D2AE030E0BB
:100570000E9420078EEB91E060E071E00E94E700AE
:100580008EEB91E04E2D5D2D6B2D792D2AE030E024
:100590000E9420078EEB91E060E071E00E94E7008E
:1005A0006091190170911A018EEB91E04AE050E0E0
:1005B0000E94FA068EEB91E060E071E00E94E70095
:1005C00060911B0170911C018EEB91E04AE050E0BC
:1005D0000E94010702C0882483948EEB91E00E9460
:1005E0004F04181619060CF432CF1F910F91FF908B
:1005F000EF90DF90CF90BF90AF909F908F907F90C3
:100600006F905F904F903F902F90089584E191E01C
:100610006AE070E049E050E00E94930008951F9264
:100620000F920FB60F9211242F933F938F939F93A6
:10063000AF93BF938091310190913201A09133012A
:10064000B0913401309135010196A11DB11D232FC8
:100650002D5F2D3720F02D570196A11DB11D209340
:1006600035018093310190933201A0933301B0930F
:10067000340180912D0190912E01A0912F01B09114
:1006800030010196A11DB11D80932D0190932E0183
:10069000A0932F01B0933001BF91AF919F918F91A3
:1006A0003F912F910F900FBE0F901F9018958FB70D
:1006B000F8942091310130913201409133015091F1
:1006C00034018FBFB901CA0108959FB7F8942091F2
:1006D0002D0130912E0140912F015091300186B5AE
:1006E000A89B06C08F3F21F02F5F3F4F4F4F5F4FBA
:1006F0009FBF542F432F322F2227280F311D411D1A
:10070000511D82E0220F331F441F551F8A95D1F7D8
:10071000B901CA010895789484B5826084BD84B516
:10072000816084BD85B5826085BD85B5816085BDEC
:10073000EEE6F0E0808181608083E1E8F0E0108205
:10074000808182608083808181608083E0E8F0E046
:10075000808181608083E1EBF0E080818460808330
:10076000E0EBF0E0808181608083EAE7F0E0808167
:1007700084608083808182608083808181608083C7
:100780008081806880831092C1000895833071F069
:10079000843028F48130A1F0823021F514C08630F5
:1007A000B1F08730D1F08430E9F404C0809180004A
:1007B0008F7703C0809180008F7D809380000895A3
:1007C00084B58F7702C084B58F7D84BD08958091F4
:1007D000B0008F778093B00008958091B0008F7D36
:1007E0008093B000089590E0FC01E656FF4F2491FD
:1007F000FC01EA57FF4FE491EE23C1F0F0E0EE0F69
:10080000FF1FE859FF4F85919491DC01662341F465
:100810009FB7F8948C91209582238C939FBF089565
:100820009FB7F8948C91822B8C939FBF08950F9360
:100830001F93DF93CF930F92CDB7DEB7282F30E011
:10084000F901E255FF4F8491F901E656FF4F1491EB
:100850002A573F4FF90104910023D9F0882321F052
:1008600069830E94C6036981E02FF0E0EE0FFF1F4D
:10087000EE58FF4F85919491DC019FB7F894662361
:1008800021F48C911095812302C08C91812B8C9343
:100890009FBF0F90CF91DF911F910F910895FC01A1
:1008A00084859585FC01E05CFF4F208131818E5B62
:1008B0009F4FFC0180819181281B390B2F73307071
:1008C000C9010895FC0184859585FC01E05CFF4F1A
:1008D00040815181FC01EE5BFF4F20813181421745
:1008E000530741F00190F081E02DE80FF91F2081BE
:1008F00030E002C02FEF3FEFC9010895FC0184856D
:100900009585FC01E05CFF4F40815181FC01EE5B6D
:10091000FF4F208131814217530771F0A081B181CF
:10092000A80FB91F2C918081918101968F739070CF
:100930009183808330E002C02FEF3FEFC90108951B
:10094000DC011E968D919C911F97FC01E05CFF4F8E
:100950008E5B9F4F40815181DC012D913C9111971D
:1009600042175307B9F708951F93FC01162F2685E8
:100970003785D901A05CBF4F8D919C91019660E4B1
:1009800070E00E94AE09D901AE5BBF4F4D915C9102
:10099000119784179507D1F3D901A05CBF4F0D9033
:1009A000BC91A02DA20FB31F1C93A685B785A05C98
:1009B000BF4F11969C938E93A689B7892C9181E0A5
:1009C00090E0058C02C0880F991F0A94E2F7282B4B
:1009D0002C9381E090E01F910895FB01E05CFF4FB4
:1009E000208131812F5F3F4F2F733070DB01AE5B71
:1009F000BF4F4D915C9111972417350739F0A081B5
:100A0000B181A60FB71F8C93318320830895089579
:100A10001F920F920FB60F9211242F933F934F9373
:100A20005F936F937F938F939F93AF93BF93EF9356
:100A3000FF938091C60066E371E00E94ED04FF9190
:100A4000EF91BF91AF919F918F917F916F915F9146
:100A50004F913F912F910F900FBE0F901F901895BF
:100A60008EEB91E00E944F04009711F00E94070561
:100A700008951F920F920FB60F9211242F933F9358
:100A80005F936F937F938F939F93AF93BF93EF93F6
:100A9000FF932091BA013091BB018091BC019091EC
:100AA000BD012817390731F48091C1008F7D8093F3
:100AB000C10016C0E091BC01F091BD01E658FE4FA7
:100AC00020818091BC019091BD01019660E470E0AD
:100AD0000E94AE099093BD018093BC012093C60093
:100AE000FF91EF91BF91AF919F918F917F916F9106
:100AF0005F913F912F910F900FBE0F901F9018950F
:100B0000DF92EF92FF920F931F93CF93DF93EC014D
:100B10007A018B01DD24D394403081EE580780E0C8
:100B2000680780E0780749F4DD24EC89FD891082AC
:100B300060E874E88EE190E00FC0EC89FD8981E007
:100B400090E00E8C02C0880F991F0A94E2F7808310
:100B500060E079E08DE390E0A80197010E94C1096F
:100B60002150304040405040569547953795279545
:100B700080E12030380710F0DD20B1F6E889F989EE
:100B80003083EA89FB892083EE89FF89408181E0F7
:100B900090E09C010A8C02C0220F331F0A94E2F7F6
:100BA000422B4083EE89FF8940819C010B8C02C05F
:100BB000220F331F0A94E2F7422B4083EE89FF890C
:100BC00040819C010C8C02C0220F331F0A94E2F773
:100BD000422B4083EE89FF8920810D8C02C0880F53
:100BE000991F0A94E2F7809582238083DF91CF9149
:100BF0001F910F91FF90EF90DF9008951092C10127
:100C00001092C00188EE93E0A0E0B0E08093C201B2
:100C10009093C301A093C401B093C501E0ECF1E04F
:100C200088E091E09293829386E391E095878487B0
:100C30008AE791E09787868785EC90E0918B808B9F
:100C400084EC90E0938B828B80EC90E0958B848B8E
:100C500081EC90E0978B868B86EC90E0918F808F73
:100C600084E0828F83E0838F87E0848F85E0858FA7
:100C700081E0868F0895CF93DF930E948B030E94BB
:100C8000F800C0E3D5E00E9454012097E1F30E94F0
:100C90003005F9CFCF92DF92EF92FF920F931F931F
:100CA000CF93DF936C017B018A01C0E0D0E00FC0DD
:100CB000D7016D917D01D601ED91FC910190F081FC
:100CC000E02DC6010995C80FD91F0150104001152C
:100CD000110571F7CE01DF91CF911F910F91FF9018
:100CE000EF90DF90CF900895DC01ED91FC910190A1
:100CF000F081E02D099508950F931F93CF93DF9313
:100D0000EC016DE00E9474068C01CE016AE00E9445
:100D10007406080F191FC801DF91CF911F910F9121
:100D200008958F929F92AF92BF92CF92DF92EF92EF
:100D3000FF920F931F93DF93CF93CDB7DEB7A197A9
:100D40000FB6F894DEBF0FBECDBF6C01042FE52FA8
:100D5000CB01122F19A2223008F41AE021E2E22E70
:100D6000F12CEC0EFD1E812E9924AA24BB2403C075
:100D7000022FE32FCA01602F7E2FA50194010E944C
:100D8000C109129F802D1124081B0894E108F10865
:100D90000A3014F4005D01C0095CF70100832115DD
:100DA00031054105510521F7C601B7010E94E70051
:100DB000A1960FB6F894DEBF0FBECDBFCF91DF91E5
:100DC0001F910F91FF90EF90DF90CF90BF90AF9069
:100DD0009F908F9008952115310549F4DC01ED9124
:100DE000FC910190F081E02D642F099508950E94F7
:100DF000910608959A01AB0160E070E00E94EB0655
:100E000008950F931F93CF93DF93EC019A01AB01E9
:100E100060E070E00E94EB068C01CE010E947C062F
:100E2000080F191FC801DF91CF911F910F910895ED
:100E30009A01462F50E060E070E00E94EB060895B2
:100E4000CF92DF92EF92FF920F931F93CF93DF9396
:100E5000EC017A018B012115310541F4E881F9811A
:100E60000190F081E02D642F09951AC02A303105D8
:100E7000A9F477FF12C06DE20E9474066C0144274A
:100E80005527BA014E195F09600B710BCE012AE09C
:100E90000E949106C80ED91E04C02AE00E94910645
:100EA0006C01C601DF91CF911F910F91FF90EF90E0
:100EB000DF90CF900895CF93DF93EC010E9457030A
:100EC000688779878A879B87E881F9810084F18523
:100ED000E02DCE0109959C0197FF15C00E94570394
:100EE000288539854A855B85621B730B840B950BBE
:100EF0002C813D814E815F816217730784079507BE
:100F000018F32FEF3FEFC901DF91CF910895CF93F1
:100F1000DF93EC01CE010E945B079C0197FD0FC09F
:100F20008D32910561F0C0978A30910540F0E881DB
:100F3000F9810680F781E02DCE010995EBCFC9013B
:100F4000DF91CF9108959F92AF92BF92CF92DF929F
:100F5000EF92FF920F931F93CF93DF936C01A62E16
:100F60000E948707EC0197FD4EC0EE24FF24870105
:100F70009924BB24A7FCB094CA15DB0531F1CD320E
:100F8000D10509F1CE01C0978A309105F0F4C8016E
:100F9000B7012AE030E040E050E00E947B097B018D
:100FA0008C01CE01AA2797FDA095BA2FE80EF91E55
:100FB0000A1F1B1F80ED9FEFAFEFBFEFE80EF91E7A
:100FC0000A1F1B1F02C099249394D601ED91FC9136
:100FD0000680F781E02DC6010995C6010E945B07D6
:100FE000EC01C0978A30910538F2CA15DB0521F271
:100FF000992061F010950095F094E094E11CF11CAB
:10100000011D111D03C0EE24FF248701B701C80193
:10101000DF91CF911F910F91FF90EF90DF90CF90D4
:10102000BF90AF909F90089561E00E94A30708953C
:101030008DE061E00E94F3038BE061E00E94F30326
:101040008AE061E00E94F3038DE060E00E941704F3
:101050008BE060E00E9417048AE061E00E941704C0
:101060008CB580618CBD8CB580648CBD089588235F
:1010700019F48CB5806202C08CB58F7D8CBD08954B
:101080009CB5937F982B9CBD08952CB5982F937099
:101090002C7F922B9CBD2DB590E0959587959595CD
:1010A000879581702E7F822B8DBD0895F8940C94C6
:1010B000E9090CD0E6C0DED040F0D5D030F021F404
:1010C0005F3F19F0C7C0511110C1CAC0EBD098F3EF
:1010D0009923C9F35523B1F3951B550BBB27AA27B9
:1010E00062177307840738F09F5F5F4F220F331F2B
:1010F000441FAA1FA9F333D00E2E3AF0E0E830D0F7
:1011000091505040E695001CCAF729D0FE2F27D0F9
:10111000660F771F881FBB1F261737074807AB07C7
:10112000B0E809F0BB0B802DBF01FF2793585F4F3C
:101130002AF09E3F510568F08DC0D7C05F3FECF3A9
:10114000983EDCF3869577956795B795F7959F5F01
:10115000C9F7880F911D9695879597F90895E1E055
:10116000660F771F881FBB1F621773078407BA07B4
:1011700020F0621B730B840BBA0BEE1F88F7E0950F
:10118000089598D088F09F5790F0B92F9927B751BC
:10119000A0F0D1F0660F771F881F991F1AF0BA953B
:1011A000C9F712C0B13081F09FD0B1E008959CC062
:1011B000672F782F8827B85F39F0B93FCCF3869531
:1011C00077956795B395D9F73EF49095809570958E
:1011D00061957F4F8F4F9F4F0895E89409C097FB0B
:1011E0003EF490958095709561957F4F8F4F9F4FFE
:1011F0009923A9F0F92F96E9BB279395F695879542
:1012000077956795B795F111F8CFFAF4BB0F11F404
:1012100060FF1BC06F5F7F4F8F4F9F4F16C08823AB
:1012200011F096E911C0772321F09EE8872F762FE1
:1012300005C0662371F096E8862F70E060E02AF022
:101240009A95660F771F881FDAF7880F969587950E
:1012500097F9089597F99F6780E870E060E0089536
:101260009FEF80EC089500240A94161617061806BE
:101270000906089500240A9412161306140605069A
:101280000895092E0394000C11F4882352F0BB0F2B
:1012900040F4BF2B11F460FF04C06F5F7F4F8F4F8E
:1012A0009F4F089557FD9058440F551F59F05F3FC9
:1012B00071F04795880F97FB991F61F09F3F79F078
:1012C00087950895121613061406551FF2CF4695FA
:1012D000F1DF08C0161617061806991FF1CF86957C
:1012E0007105610508940895E894BB276627772760
:1012F000CB0197F90895629FD001739FF001829FFF
:10130000E00DF11D649FE00DF11D929FF00D839F94
:10131000F00D749FF00D659FF00D9927729FB00D31
:10132000E11DF91F639FB00DE11DF91FBD01CF0144
:1013300011240895AA1BBB1B51E107C0AA1FBB1FA4
:10134000A617B70710F0A61BB70B881F991F5A9551
:10135000A9F780959095BC01CD01089597FB092EC2
:1013600007260AD077FD04D0E5DF06D000201AF466
:10137000709561957F4F0895F6F7909581959F4FF1
:101380000895A1E21A2EAA1BBB1BFD010DC0AA1FC6
:10139000BB1FEE1FFF1FA217B307E407F50720F0DE
:1013A000A21BB30BE40BF50B661F771F881F991F59
:1013B0001A9469F760957095809590959B01AC01A2
:1013C000BD01CF010895EE0FFF1F0590F491E02DB0
:0613D0000994F894FFCF20
:1013D6002000010100000000B4044A064F047E0408
:0413E6006204A004F9
:00000001FF
