:100000000C9463000C948B000C948B000C948B006C
:100010000C948B000C948B000C948B000C948B0034
:100020000C948B000C948B000C948B000C948B0024
:100030000C948B000C948B000C948B000C948B0014
:100040000C9481030C948B000C9496050C94C705BA
:100050000C948B000C948B000C948B000C948B00F4
:100060000C948B000C948B000000000024002700EF
:100070002A0000000000250028002B0000000000DE
:1000800023002600290004040404040404040202DA
:100090000202020203030303030301020408102007
:1000A0004080010204081020010204081020000012
:1000B0000007000201000003040600000000000029
:1000C00000005403800611241FBECFEFD8E0DEBF2E
:1000D000CDBF11E0A0E0B1E0E6E1F4E102C005909F
:1000E0000D92A631B107D9F711E0A6E1B1E001C048
:1000F0001D92A63EB107E1F710E0C6ECD0E004C0C7
:100100002297FE010E94050AC23CD107C9F70E944E
:10011000BD060C949D080C9400008EBD0DB407FE26
:10012000FDCF8EB50895CF93DF93EC01862F6883C2
:1001300079835B834A8361E00E9465048A8161E080
:100140000E946504888161E00E94AA048A8161E0BE
:100150000E94AA04DF91CF910895EF92FF921F931E
:10016000DF93CF9300D00F92CDB7DEB77C01162F6F
:10017000FC01808160E04A8359837B830E94AA044A
:100180005981852F0E948D004A81842F0E948D0005
:100190007B81872F0E948D00812F0E948D00F701A7
:1001A000808161E00E94AA04F701828160E00E94E0
:1001B000AA04F701828161E00E94AA040F900F90C7
:1001C0000F90CF91DF911F91FF90EF900895DB0189
:1001D0000D900020E9F7AD0141505040461B570BF0
:1001E000DC01ED91FC910280F381E02D09950895E9
:1001F00087E061E00E94650487EC91E040E052EC0A
:1002000061E070E00E94020680E00E94870881E0C1
:100210000E947E0884E00E948C080E945F0887E0AC
:1002200060E00E94AA0460911C0170911D01409140
:100230001E0150911F0186E191E00E94AD0083E014
:100240000E945D030E94D70360932A0170932B01E3
:1002500080932C0190932D010895CF93DF93EA01B1
:10026000F901611571058105910551F410828FEF37
:100270009FEFA0E0B0E088839983AA83BB831EC070
:1002800097FF0AC02FEF2083909580957095619518
:100290007F4F8F4F9F4F02C021E020830E9436097D
:1002A0009B01AC0160E074E284E799E40E94A0083D
:1002B0000E940809688379838A839B83DF91CF91A9
:1002C00008954F925F926F927F928F929F92AF921A
:1002D000BF92CF92DF92EF92FF920F931F93DF9323
:1002E000CF93CDB7DEB728970FB6F894DEBF0FBE19
:1002F000CDBF0E94D70369837A838B839C838091CF
:100300001A01882309F4C9C0E0902E01F0902F0152
:100310000091300110913101ED82FE820F83188728
:1003200069817A818B819C816E197F09800B910B89
:1003300020913201309133014091340150913501C7
:1003400049805A806B807C80421A530A640A750A7D
:10035000611571058105910509F442C0E090220103
:10036000F09023010091240110912501A80197012B
:100370000E94E10949015A0181149104A104B104C8
:1003800079F180910201992787FD9095829FB001B4
:10039000839F700D929F700D112480911C0190918C
:1003A0001D01860F971F90931D0180931C01B901B9
:1003B000CA01A80197010E94C2090D811E812F81E7
:1003C0003885600F711F821F931F60932E017093F9
:1003D0002F018093300190933101DD24D39401C02B
:1003E000DD24411451046104710409F448C0E09013
:1003F0002601F09027010091280110912901C301E5
:10040000B201A80197010E94E10949015A01811432
:100410009104A104B10499F1A0910301BB27A7FDA8
:10042000B095A29FF001A39FF00DB29FF00D112493
:1004300080911E0190911F018E0F9F1F90931F01AD
:1004400080931E01B901CA01A80197010E94C20947
:100450009B01AC018091320190913301A091340154
:10046000B0913501820F931FA41FB51F80933201F5
:1004700090933301A0933401B093350102C0DD2085
:1004800061F060911C0170911D0140911E0150911D
:100490001F0186E191E00E94AD00DD2444244394D5
:1004A00078C087EC91E00E945B08D62E87EC91E043
:1004B0000E945B087B018C0187EC91E00E945B0845
:1004C0004B015C0187EC91E00E9411058A30910597
:1004D00009F05FC0CD2CD1FE03C087E061E002C00F
:1004E00087E060E00E94AA04C2FE3FC040921A0169
:1004F000C801B70142E251E022E031E00E942D0143
:10050000C501B40146E251E023E031E00E942D0133
:100510000E94D703209122013091230140912401B0
:10052000509125017B018C01E21AF30A040B150B93
:10053000E0922E01F0922F010093300110933101CF
:1005400020912601309127014091280150912901E5
:10055000621B730B840B950B609332017093330114
:10056000809334019093350110C010921A01F092DB
:100570001D01E0921C0190921F0180921E0186E1F4
:1005800091E0B701A4010E94AD008D2D8870809389
:100590001B0187EC91E00E94E204181619060CF486
:1005A00080CF80912A0190912B01A0912C01B091D4
:1005B0002D01DD2099F409811A812B813C81081BD2
:1005C000190B2A0B3B0BD901C801813A16E8910798
:1005D00011E0A10710E0B10708F44FC080911B01A2
:1005E000882339F08EE00E9460039093210180936C
:1005F000200187EC91E060911A014AE050E00E94EE
:100600009A0787EC91E060E071E00E94E70060915A
:100610001C0170911D0187EC91E04AE050E00E94BE
:100620007C0787EC91E060E071E00E94E700609158
:100630001E0170911F0187EC91E04AE050E00E949A
:100640007C0787EC91E060E071E00E94E700609138
:1006500020017091210187EC91E04AE050E00E9476
:10066000830729813A814B815C8120932A01309351
:100670002B0140932C0150932D0128960FB6F8942E
:10068000DEBF0FBECDBFCF91DF911F910F91FF90C5
:10069000EF90DF90CF90BF90AF909F908F907F9022
:1006A0006F905F904F90089586E191E06AE070E06E
:1006B00049E050E00E94930008958093040108955A
:1006C0008E3008F08E508770909104019295990FAA
:1006D000990F907C982B90937C0080917A00806495
:1006E00080937A0080917A0086FDFCCF209178007B
:1006F00030917900932F80E030E0282B392BC9010D
:1007000008951F920F920FB60F9211242F933F93CB
:100710008F939F93AF93BF9380913A0190913B0148
:10072000A0913C01B0913D0130913E010196A11D87
:10073000B11D232F2D5F2D3720F02D570196A11DC0
:10074000B11D20933E0180933A0190933B01A09309
:100750003C01B0933D018091360190913701A09109
:100760003801B09139010196A11DB11D8093360168
:1007700090933701A0933801B0933901BF91AF91A5
:100780009F918F913F912F910F900FBE0F901F90CF
:1007900018958FB7F89420913A0130913B01409120
:1007A0003C0150913D018FBFB901CA0108959FB727
:1007B000F8942091360130913701409138015091E1
:1007C000390186B5A89B06C08F3F21F02F5F3F4FB0
:1007D0004F4F5F4F9FBF542F432F322F2227280F99
:1007E000311D411D511D82E0220F331F441F551F33
:1007F0008A95D1F7B901CA010895789484B58260C9
:1008000084BD84B5816084BD85B5826085BD85B5B4
:10081000816085BDEEE6F0E0808181608083E1E863
:10082000F0E010828081826080838081816080839B
:10083000E0E8F0E0808181608083E1EBF0E080819E
:1008400084608083E0EBF0E0808181608083EAE770
:10085000F0E08081846080838081826080838081F9
:10086000816080838081806880831092C1000895B8
:10087000833071F0843028F48130A1F0823021F58A
:1008800014C08630B1F08730D1F08430E9F404C070
:10089000809180008F7703C0809180008F7D80934E
:1008A0008000089584B58F7702C084B58F7D84BDA4
:1008B00008958091B0008F778093B0000895809163
:1008C000B0008F7D8093B0000895EF92FF92CF9398
:1008D000DF9390E0FC01E656FF4F44918A579F4F0B
:1008E000FC018491882389F190E0880F991FFC0115
:1008F000E859FF4F25913491D9018E589F4FFC0143
:1009000025913491E22EE7017E01F32EE701662363
:1009100049F49FB7F8948C91409584238C938881F7
:1009200084230BC0623059F49FB7F8948C91242F24
:10093000209582238C938881842B888305C09FB760
:10094000F8948C91842B8C939FBFDF91CF91FF9073
:10095000EF9008950F931F93DF93CF930F92CDB72E
:10096000DEB7282F30E0F901E255FF4F8491F901FD
:10097000E656FF4F14912A573F4FF9010491002387
:10098000D9F0882321F069830E9438046981E02F1F
:10099000F0E0EE0FFF1FEE58FF4F85919491DC01C0
:1009A0009FB7F894662321F48C911095812302C09F
:1009B0008C91812B8C939FBF0F90CF91DF911F91D2
:1009C0000F910895FC0184859585FC01E05CFF4F43
:1009D000208131818E5B9F4FFC0180819181281B9A
:1009E000390B2F733070C9010895FC0184859585FA
:1009F000FC01E05CFF4F40815181FC01EE5BFF4F49
:100A0000208131814217530741F00190F081E02DA0
:100A1000E80FF91F208130E002C02FEF3FEFC9013E
:100A20000895FC0184859585FC01E05CFF4F4081C1
:100A30005181FC01EE5BFF4F20813181421753074A
:100A400071F0A081B181A80FB91F2C918081918193
:100A500001968F7390709183808330E002C02FEFF6
:100A60003FEFC9010895DC011E968D919C911F975F
:100A7000FC01E05CFF4F8E5B9F4F40815181DC01A8
:100A80002D913C91119742175307B9F70895FC0136
:100A900026853785D901A05CBF4F8D919C91019629
:100AA0008F739070D901AE5BBF4F4D915C911197E0
:100AB00084179507D1F3D901A05CBF4F0D90BC916D
:100AC000A02DA20FB31F6C93A685B785A05CBF4F66
:100AD00011969C938E93A689B7892C9181E090E022
:100AE000058C02C0880F991F0A94E2F7282B2C93DB
:100AF00081E090E00895FB01E05CFF4F20813181AF
:100B00002F5F3F4F2F733070DB01AE5BBF4F4D91B6
:100B10005C9111972417350739F0A081B181A60F98
:100B2000B71F8C9331832083089508951F920F92ED
:100B30000FB60F9211242F933F934F935F936F93B0
:100B40007F938F939F93AF93BF93EF93FF93809186
:100B5000C6006FE371E00E947B05FF91EF91BF91AA
:100B6000AF919F918F917F916F915F914F913F9145
:100B70002F910F900FBE0F901F90189587EC91E06A
:100B80000E94E204009711F00E94950508951F92BB
:100B90000F920FB60F9211242F933F938F939F9331
:100BA000EF93FF932091C3013091C4018091C5015F
:100BB0009091C6012817390731F48091C1008F7DCB
:100BC0008093C10014C0E091C501F091C601ED57BA
:100BD000FE4F20818091C5019091C60101968F73CF
:100BE00090709093C6018093C5012093C600FF9139
:100BF000EF919F918F913F912F910F900FBE0F908A
:100C00001F901895DF92EF92FF920F931F93CF934F
:100C1000DF93EC017A018B01DD24D394403081EE27
:100C2000580780E0680780E0780749F4DD24EC8904
:100C3000FD89108260E874E88EE190E00FC0EC89D5
:100C4000FD8981E090E00E8C02C0880F991F0A9404
:100C5000E2F7808360E079E08DE390E0A8019701FE
:100C60000E94E10921503040404050405695479540
:100C70003795279580E12030380710F0DD20B1F658
:100C8000E889F9893083EA89FB892083EE89FF8925
:100C9000408181E090E09C010A8C02C0220F331F4A
:100CA0000A94E2F7422B4083EE89FF8940819C0140
:100CB0000B8C02C0220F331F0A94E2F7422B4083B1
:100CC000EE89FF8940819C010C8C02C0220F331FEA
:100CD0000A94E2F7422B4083EE89FF8920810D8C34
:100CE00002C0880F991F0A94E2F7809582238083BF
:100CF000DF91CF911F910F91FF90EF90DF900895BA
:100D00001092CA011092C90188EE93E0A0E0B0E011
:100D10008093CB019093CC01A093CD01B093CE01F1
:100D2000E9ECF1E089E091E0929382938FE391E026
:100D30009587848783E891E09787868785EC90E0A4
:100D4000918B808B84EC90E0938B828B80EC90E095
:100D5000958B848B81EC90E0978B868B86EC90E072
:100D6000918F808F84E0828F83E0838F87E0848FF0
:100D700085E0858F81E0868F0895CF93DF930E9471
:100D8000FD030E94F800CEEBD5E00E9461012097A0
:100D9000E1F30E94BE05F9CFCF92DF92EF92FF926E
:100DA0000F931F93CF93DF936C017B018A01C0E007
:100DB000D0E00FC0D7016D917D01D601ED91FC917E
:100DC0000190F081E02DC6010995C80FD91F01508F
:100DD00010400115110571F7CE01DF91CF911F91E0
:100DE0000F91FF90EF90DF90CF900895DC01ED918F
:100DF000FC910190F081E02D099508950F931F93C8
:100E0000CF93DF93EC016DE00E94F6068C01CE01DA
:100E10006AE00E94F606080F191FC801DF91CF9102
:100E20001F910F9108958F929F92AF92BF92CF9290
:100E3000DF92EF92FF920F931F93DF93CF93CDB783
:100E4000DEB7A1970FB6F894DEBF0FBECDBF6C0121
:100E5000042FE52FCB01122F19A2223008F41AE03B
:100E600021E2E22EF12CEC0EFD1E812E9924AA2403
:100E7000BB2403C0022FE32FCA01602F7E2FA501E0
:100E800094010E94E109129F802D1124081B0894EF
:100E9000E108F1080A3014F4005D01C0095CF701B3
:100EA0000083211531054105510521F7C601B70120
:100EB0000E94E700A1960FB6F894DEBF0FBECDBF2B
:100EC000CF91DF911F910F91FF90EF90DF90CF9026
:100ED000BF90AF909F908F9008952115310549F4F0
:100EE000DC01ED91FC910190F081E02D642F0995DA
:100EF00008950E94130708959A01AB0160E070E025
:100F00000E946D0708950F931F93CF93DF93EC0119
:100F10009A01AB0160E070E00E946D078C01CE0188
:100F20000E94FE06080F191FC801DF91CF911F9183
:100F30000F9108959A01462F50E060E070E00E9402
:100F40006D070895CF93DF93EC010E94C903688772
:100F500079878A879B87E881F9810084F185E02D74
:100F6000CE0109959C0197FF15C00E94C9032885F1
:100F700039854A855B85621B730B840B950B2C812D
:100F80003D814E815F81621773078407950718F3CF
:100F90002FEF3FEFC901DF91CF910895CF93DF93FA
:100FA000EC01CE010E94A2079C0197FD0FC08D327B
:100FB000910561F0C0978A30910540F0E881F98190
:100FC0000680F781E02DCE010995EBCFC901DF91B5
:100FD000CF9108959F92AF92BF92CF92DF92EF92FE
:100FE000FF920F931F93CF93DF936C01A62E0E9465
:100FF000CE07EC0197FD4EC0EE24FF248701992413
:10100000BB24A7FCB094CA15DB0531F1CD32D10564
:1010100009F1CE01C0978A309105F0F4C801B701FB
:101020002AE030E040E050E00E94C2097B018C01E0
:10103000CE01AA2797FDA095BA2FE80EF91E0A1F28
:101040001B1F80ED9FEFAFEFBFEFE80EF91E0A1FE9
:101050001B1F02C099249394D601ED91FC91068048
:10106000F781E02DC6010995C6010E94A207EC0197
:10107000C0978A30910538F2CA15DB0521F2992014
:1010800061F010950095F094E094E11CF11C011DB5
:10109000111D03C0EE24FF248701B701C801DF91B1
:1010A000CF911F910F91FF90EF90DF90CF90BF9065
:1010B000AF909F90089561E00E94EA0708958DE047
:1010C00061E00E9465048BE061E00E9465048AE0B3
:1010D00061E00E9465048DE060E00E94AA048BE05C
:1010E00060E00E94AA048AE061E00E94AA048CB534
:1010F00080618CBD8CB580648CBD0895882319F403
:101100008CB5806202C08CB58F7D8CBD08959CB576
:10111000937F982B9CBD08952CB5982F93702C7FAE
:10112000922B9CBD2DB590E09595879595958795CB
:1011300081702E7F822B8DBD0895F8940C94090A3E
:101140000CD0E6C0DED040F0D5D030F021F45F3FC7
:1011500019F0C7C0511110C1CAC0EBD098F3992340
:10116000C9F35523B1F3951B550BBB27AA2762176B
:101170007307840738F09F5F5F4F220F331F441FB0
:10118000AA1FA9F333D00E2E3AF0E0E830D09150E8
:101190005040E695001CCAF729D0FE2F27D0660FD5
:1011A000771F881FBB1F261737074807AB07B0E814
:1011B00009F0BB0B802DBF01FF2793585F4F2AF02A
:1011C0009E3F510568F08DC0D7C05F3FECF3983E5D
:1011D000DCF3869577956795B795F7959F5FC9F787
:1011E000880F911D9695879597F90895E1E0660F10
:1011F000771F881FBB1F621773078407BA0720F089
:10120000621B730B840BBA0BEE1F88F7E0950895F1
:1012100098D088F09F5790F0B92F9927B751A0F038
:10122000D1F0660F771F881F991F1AF0BA95C9F77A
:1012300012C0B13081F09FD0B1E008959CC0672FFB
:10124000782F8827B85F39F0B93FCCF3869577952A
:101250006795B395D9F73EF4909580957095619513
:101260007F4F8F4F9F4F0895E89409C097FB3EF43E
:1012700090958095709561957F4F8F4F9F4F9923E3
:10128000A9F0F92F96E9BB279395F6958795779561
:101290006795B795F111F8CFFAF4BB0F11F460FF21
:1012A0001BC06F5F7F4F8F4F9F4F16C0882311F079
:1012B00096E911C0772321F09EE8872F762F05C08D
:1012C000662371F096E8862F70E060E02AF09A9528
:1012D000660F771F881FDAF7880F9695879597F91D
:1012E000089597F99F6780E870E060E008959FEFA8
:1012F00080EC089500240A941616170618060906AD
:10130000089500240A94121613061406050608957B
:10131000092E0394000C11F4882352F0BB0F40F403
:10132000BF2B11F460FF04C06F5F7F4F8F4F9F4F43
:10133000089557FD9058440F551F59F05F3F71F0C5
:101340004795880F97FB991F61F09F3F79F087952C
:101350000895121613061406551FF2CF4695F1DFB5
:1013600008C0161617061806991FF1CF8695710545
:10137000610508940895E894BB2766277727CB0179
:1013800097F90895629FD001739FF001829FE00D4D
:10139000F11D649FE00DF11D929FF00D839FF00DF4
:1013A000749FF00D659FF00D9927729FB00DE11DA0
:1013B000F91F639FB00DE11DF91FBD01CF0111247D
:1013C0000895A1E21A2EAA1BBB1BFD010DC0AA1F86
:1013D000BB1FEE1FFF1FA217B307E407F50720F09E
:1013E000A21BB30BE40BF50B661F771F881F991F19
:1013F0001A9469F760957095809590959B01AC0162
:10140000BD01CF010895EE0FFF1F0590F491E02D6F
:061410000994F894FFCFDF
:101416002000010101000000004705CC06E204118E
:0614260005F5043305008A
:00000001FF
