:100000000C9463000C948B000C948B000C948B006C
:100010000C948B000C948B000C948B000C948B0034
:100020000C948B000C948B000C948B000C948B0024
:100030000C948B000C948B000C948B000C948B0014
:100040000C9497040C948B000C94AC060C94DD0675
:100050000C948B000C948B000C948B000C948B00F4
:100060000C948B000C948B000000000024002700EF
:100070002A0000000000250028002B0000000000DE
:1000800023002600290004040404040404040202DA
:100090000202020203030303030301020408102007
:1000A0004080010204081020010204081020000012
:1000B0000007000201000003040600000000000029
:1000C00000000A04960711241FBECFEFD8E0DEBF60
:1000D000CDBF11E0A0E0B1E0E2E3F6E102C005909F
:1000E0000D92A631B107D9F711E0A6E1B1E001C048
:1000F0001D92AA3EB107E1F710E0C6ECD0E004C0C3
:100100002297FE010E94130BC23CD107C9F70E943F
:10011000D3070C94AB090C9400008EBD0DB407FE00
:10012000FDCF8EB50895CF93DF93EC01862F6883C2
:1001300079835B834A8361E00E947B058A8161E069
:100140000E947B05888161E00E94C0058A8161E090
:100150000E94C005DF91CF910895EF92FF921F9307
:10016000DF93CF9300D000D00F92CDB7DEB77C01E4
:10017000162FFC01808160E02A8339834C835B83E6
:100180007D830E94C0053981832F0E948D002A81C2
:10019000822F0E948D005B81852F0E948D004C81F3
:1001A000842F0E948D007D81872F0E948D00812FDA
:1001B0000E948D00F701808161E00E94C005F70177
:1001C000828160E00E94C005F701828161E00E94A7
:1001D000C0050F900F900F900F900F90CF91DF916F
:1001E0001F91FF90EF900895DB010D900020E9F73B
:1001F000AD0141505040461B570BDC01ED91FC9185
:100200000280F381E02D0995089510922201109249
:100210002301109224011092250187E061E00E94E1
:100220007B058BEC91E040E052EC61E070E00E94D5
:10023000180783E061E00E947B0580E00E94950939
:1002400081E00E948C0984E00E949A090E946D0955
:100250008091220183FD04C087E060E00E94C00518
:1002600060911A0170911B0140911C0150911D0178
:1002700086E191E020E030E00E94AD0083E00E9442
:1002800013040E94ED0460932E0170932F0180935C
:100290003001909331010895CF93DF93EA01F90182
:1002A000611571058105910551F410828FEF9FEF63
:1002B000A0E0B0E088839983AA83BB831EC097FF28
:1002C0000AC02FEF208390958095709561957F4FA0
:1002D0008F4F9F4F02C021E020830E94440A9B0160
:1002E000AC0160E074E284E799E40E94AE090E94E8
:1002F000160A688379838A839B83DF91CF9108955F
:100300004F925F926F927F928F929F92AF92BF9225
:10031000CF92DF92EF92FF920F931F93DF93CF93D1
:10032000CDB7DEB728970FB6F894DEBF0FBECDBFAE
:100330000E94ED0469837A838B839C8380912201E0
:1003400082FFD1C0C0903201D0903301E0903401DF
:10035000F0903501CD82DE82EF82F88669817A8164
:100360008B819C816C197D098E099F092091360132
:1003700030913701409138015091390149805A80BC
:100380006B807C80421A530A640A750A61157105F4
:100390008105910509F442C0E0902601F090270103
:1003A0000091280110912901A80197010E94EF0AEC
:1003B00049015A0181149104A104B10479F1809199
:1003C0000201992787FD9095829FB001839F700D50
:1003D000929F700D112480911A0190911B01860F3C
:1003E000971F90931B0180931A01B901CA01A801BC
:1003F00097010E94D00A2D813E814F815885620F5E
:10040000731F841F951F6093320170933301809393
:10041000340190933501DD24D39401C0DD244114CF
:1004200051046104710409F448C0E0902A01F0907D
:100430002B0100912C0110912D01C301B201A801E3
:1004400097010E94EF0A49015A0181149104A10405
:10045000B10499F1A0910301BB27A7FDB095A29F1C
:10046000F001A39FF00DB29FF00D112480911C01AB
:1004700090911D018E0F9F1F90931D0180931C0171
:10048000B901CA01A80197010E94D00A9B01AC01E1
:100490008091360190913701A0913801B0913901D6
:1004A000820F931FA41FB51F8093360190933701CD
:1004B000A0933801B093390102C0DD20A1F08091F2
:1004C000220160911A0170911B0140911C01509111
:1004D0001D0183FF0AC020911E0130911F0186E19A
:1004E00091E00E94AD0010E004C186E191E020E0BF
:1004F00030E0F7CF8BEC91E00E946909162F8BEC6E
:1005000091E00E946909E62ED72EC82EF92E8BECB9
:1005100091E00E9469094B015C018BEC91E00E9423
:100520006909062F8BEC91E00E9427068A3091051D
:1005300009F0DFC0113009F048C08091220190918C
:100540002301A0912401B09125019C01AD012160FE
:1005500020932201309323014093240150932501DD
:10056000E0FE09C083608093220190932301A09351
:100570002401B0932501E1FE11C0809122019091E8
:100580002301A0912401B09125018860809322016C
:1005900090932301A0932401B0932501109221018F
:1005A0001092200110921F0110921E0110921D0145
:1005B00010921C0110921B0110921A0186E191E029
:1005C00060E070E040E050E07FC0202F30E085E048
:1005D000220F331F8A95E1F730931F0120931E01EC
:1005E00040912201509123016091240170912501D5
:1005F00011FF48C04460409322015093230160934F
:100600002401709325016E2D7D2D8C2D9F2D46E2AA
:1006100051E022E031E00E944C01C501B4014AE200
:1006200051E023E031E00E944C010E94ED04209152
:1006300026013091270140912801509129016B0139
:100640007C01C21AD30AE40AF50AC0923201D092A0
:100650003301E0923401F092350120912A0130916A
:100660002B0140912C0150912D01621B730B840BC7
:10067000950B609336017093370180933801909306
:10068000390126C0DB01CA018B7F80932201909340
:100690002301A0932401B09325018E2D9D2D9093CD
:1006A0001B0180931A0190921D0180921C0143FF4F
:1006B00006C086E191E06E2D7D2DA40107C086E184
:1006C00091E06E2D7D2DA40120E030E00E94AD0070
:1006D0008091220183FF06C083E0602F70E00E94BA
:1006E000370407C061E0002309F460E087E00E945E
:1006F000C0058BEC91E00E94F805181619060CF461
:10070000F9CE80912E0190912F01A0913001B091EE
:100710003101112399F429813A814B815C81281B95
:10072000390B4A0B5B0BDA01C901813A36E89307B2
:1007300031E0A30730E0B30708F455C080912201EF
:1007400081FF07C08EE00E941604909321018093E0
:100750002001409122015091230160912401709168
:1007600025018BEC91E02AE030E00E9483088BECBD
:1007700091E060E071E00E94F40060911A017091D4
:100780001B018BEC91E04AE050E00E9492088BEC58
:1007900091E060E071E00E94F40060911C017091B2
:1007A0001D018BEC91E04AE050E00E9492088BEC36
:1007B00091E060E071E00E94F4006091200170918E
:1007C00021018BEC91E04AE050E00E949908898178
:1007D0009A81AB81BC8180932E0190932F01A093CD
:1007E0003001B093310128960FB6F894DEBF0FBEEA
:1007F000CDBFCF91DF911F910F91FF90EF90DF90D0
:10080000CF90BF90AF909F908F907F906F905F90B0
:100810004F90089586E191E06AE070E049E050E091
:100820000E94930008958093040108958E3008F08B
:100830008E508770909104019295990F990F907C3A
:10084000982B90937C0080917A00806480937A004A
:1008500080917A0086FDFCCF20917800309179005C
:10086000932F80E030E0282B392BC90108951F9386
:10087000CF93DF93182FEB0161E00E947B05209757
:1008800009F44AC0CF3FD10509F449C0E12FF0E097
:10089000E255FF4FE491E330C1F0E43028F4E13059
:1008A00051F0E230B1F50CC0E63019F1E73049F112
:1008B000E43079F514C084B5806884BDC7BD33C009
:1008C00084B5806284BDC8BD2EC0809180008068E0
:1008D00080938000D0938900C093880024C08091C9
:1008E0008000806280938000D0938B00C0938A0048
:1008F0001AC08091B00080688093B000C093B300AC
:1009000012C08091B00080628093B000C093B400A8
:100910000AC0C038D1051CF4812F60E002C0812FCD
:1009200061E00E94C005DF91CF911F9108951F9251
:100930000F920FB60F9211242F933F938F939F9393
:10094000AF93BF9380913E0190913F01A0914001F0
:10095000B0914101309142010196A11DB11D232F9B
:100960002D5F2D3720F02D570196A11DB11D20932D
:10097000420180933E0190933F01A0934001B093C8
:10098000410180913A0190913B01A0913C01B091CD
:100990003D010196A11DB11D80933A0190933B0149
:1009A000A0933C01B0933D01BF91AF919F918F9176
:1009B0003F912F910F900FBE0F901F9018958FB7FA
:1009C000F89420913E0130913F01409140015091B7
:1009D00041018FBFB901CA0108959FB7F8942091D2
:1009E0003A0130913B0140913C0150913D0186B567
:1009F000A89B06C08F3F21F02F5F3F4F4F4F5F4FA7
:100A00009FBF542F432F322F2227280F311D411D06
:100A1000511D82E0220F331F441F551F8A95D1F7C5
:100A2000B901CA010895789484B5826084BD84B503
:100A3000816084BD85B5826085BD85B5816085BDD9
:100A4000EEE6F0E0808181608083E1E8F0E01082F2
:100A5000808182608083808181608083E0E8F0E033
:100A6000808181608083E1EBF0E08081846080831D
:100A7000E0EBF0E0808181608083EAE7F0E0808154
:100A800084608083808182608083808181608083B4
:100A90008081806880831092C1000895833071F056
:100AA000843028F48130A1F0823021F514C08630E2
:100AB000B1F08730D1F08430E9F404C08091800037
:100AC0008F7703C0809180008F7D80938000089590
:100AD00084B58F7702C084B58F7D84BD08958091E1
:100AE000B0008F778093B00008958091B0008F7D23
:100AF0008093B0000895EF92FF92CF93DF9390E040
:100B0000FC01E656FF4F44918A579F4FFC018491A8
:100B1000882389F190E0880F991FFC01E859FF4F65
:100B200025913491D9018E589F4FFC012591349124
:100B3000E22EE7017E01F32EE701662349F49FB719
:100B4000F8948C91409584238C93888184230BC0E6
:100B5000623059F49FB7F8948C91242F209582230A
:100B60008C938881842B888305C09FB7F8948C91DF
:100B7000842B8C939FBFDF91CF91FF90EF900895CE
:100B80000F931F93DF93CF930F92CDB7DEB7282F2C
:100B900030E0F901E255FF4F8491F901E656FF4F2D
:100BA00014912A573F4FF90104910023D9F088236B
:100BB00021F069830E944E056981E02FF0E0EE0F7D
:100BC000FF1FEE58FF4F85919491DC019FB7F89479
:100BD000662321F48C911095812302C08C91812B86
:100BE0008C939FBF0F90CF91DF911F910F9108952C
:100BF000FC0184859585FC01E05CFF4F20813181FB
:100C00008E5B9F4FFC0180819181281B390B2F73D4
:100C10003070C9010895FC0184859585FC01E05C74
:100C2000FF4F40815181FC01EE5BFF4F20813181FC
:100C30004217530741F00190F081E02DE80FF91FB2
:100C4000208130E002C02FEF3FEFC9010895FC0181
:100C500084859585FC01E05CFF4F40815181FC015A
:100C6000EE5BFF4F208131814217530771F0A08165
:100C7000B181A80FB91F2C918081918101968F734A
:100C800090709183808330E002C02FEF3FEFC90165
:100C90000895DC011E968D919C911F97FC01E05CEC
:100CA000FF4F8E5B9F4F40815181DC012D913C9124
:100CB000119742175307B9F70895FC012685378528
:100CC000D901A05CBF4F8D919C9101968F7390705C
:100CD000D901AE5BBF4F4D915C9111978417950779
:100CE000D1F3D901A05CBF4F0D90BC91A02DA20FF4
:100CF000B31F6C93A685B785A05CBF4F11969C93DC
:100D00008E93A689B7892C9181E090E0058C02C072
:100D1000880F991F0A94E2F7282B2C9381E090E02A
:100D20000895FB01E05CFF4F208131812F5F3F4F31
:100D30002F733070DB01AE5BBF4F4D915C9111970B
:100D40002417350739F0A081B181A60FB71F8C9306
:100D500031832083089508951F920F920FB60F924A
:100D600011242F933F934F935F936F937F938F93B0
:100D70009F93AF93BF93EF93FF938091C60063E47B
:100D800071E00E949106FF91EF91BF91AF919F9109
:100D90008F917F916F915F914F913F912F910F9024
:100DA0000FBE0F901F9018958BEC91E00E94F805F4
:100DB000009711F00E94AB0608951F920F920FB694
:100DC0000F9211242F933F938F939F93EF93FF9351
:100DD0002091C7013091C8018091C9019091CA0149
:100DE0002817390731F48091C1008F7D8093C100AD
:100DF00014C0E091C901F091CA01E957FE4F20816A
:100E00008091C9019091CA0101968F73907090935F
:100E1000CA018093C9012093C600FF91EF919F9171
:100E20008F913F912F910F900FBE0F901F901895AB
:100E3000DF92EF92FF920F931F93CF93DF93EC011A
:100E40007A018B01DD24D394403081EE580780E095
:100E5000680780E0780749F4DD24EC89FD89108279
:100E600060E874E88EE190E00FC0EC89FD8981E0D4
:100E700090E00E8C02C0880F991F0A94E2F78083DD
:100E800060E079E08DE390E0A80197010E94EF0A0D
:100E90002150304040405040569547953795279512
:100EA00080E12030380710F0DD20B1F6E889F989BB
:100EB0003083EA89FB892083EE89FF89408181E0C4
:100EC00090E09C010A8C02C0220F331F0A94E2F7C3
:100ED000422B4083EE89FF8940819C010B8C02C02C
:100EE000220F331F0A94E2F7422B4083EE89FF89D9
:100EF00040819C010C8C02C0220F331F0A94E2F740
:100F0000422B4083EE89FF8920810D8C02C0880F1F
:100F1000991F0A94E2F7809582238083DF91CF9115
:100F20001F910F91FF90EF90DF9008951092CE01E6
:100F30001092CD0188EE93E0A0E0B0E08093CF0165
:100F40009093D001A093D101B093D201EDECF1E0E8
:100F500089E091E09293829383E491E0958784877E
:100F600087E891E09787868785EC90E0918B808B6E
:100F700084EC90E0938B828B80EC90E0958B848B5B
:100F800081EC90E0978B868B86EC90E0918F808F40
:100F900084E0828F83E0838F87E0848F85E0858F74
:100FA00081E0868F0895CF93DF930E9413050E94FE
:100FB0000501C4EDD6E00E9480012097E1F30E9474
:100FC000D406F9CFCF92DF92EF92FF920F931F9347
:100FD000CF93DF936C017B018A01C0E0D0E00FC0AA
:100FE000D7016D917D01D601ED91FC910190F081C9
:100FF000E02DC6010995C80FD91F015010400115F9
:10100000110571F7CE01DF91CF911F910F91FF90E4
:10101000EF90DF90CF900895DC01ED91FC9101906D
:10102000F081E02D099508950F931F93CF93DF93DF
:10103000EC016DE00E940C088C01CE016AE00E9478
:101040000C08080F191FC801DF91CF911F910F9154
:1010500008958F929F92AF92BF92CF92DF92EF92BC
:10106000FF920F931F93DF93CF93CDB7DEB7A19776
:101070000FB6F894DEBF0FBECDBF6C01042FE52F75
:10108000CB01122F19A2223008F41AE021E2E22E3D
:10109000F12CEC0EFD1E812E9924AA24BB2403C042
:1010A000022FE32FCA01602F7E2FA50194010E9419
:1010B000EF0A129F802D1124081B0894E108F10803
:1010C0000A3014F4005D01C0095CF70100832115AA
:1010D00031054105510521F7C601B7010E94F40011
:1010E000A1960FB6F894DEBF0FBECDBFCF91DF91B2
:1010F0001F910F91FF90EF90DF90CF90BF90AF9036
:101100009F908F9008952115310549F4DC01ED91F0
:10111000FC910190F081E02D642F099508950E94C3
:10112000290808959A01AB0160E070E00E948308ED
:1011300008950F931F93CF93DF93EC019A01AB01B6
:1011400060E070E00E9483088C01CE010E941408C8
:10115000080F191FC801DF91CF911F910F910895BA
:10116000CF93DF93EC010E94DF04688779878A8739
:101170009B87E881F9810084F185E02DCE010995F6
:101180009C0197FF15C00E94DF04288539854A8598
:101190005B85621B730B840B950B2C813D814E810B
:1011A0005F81621773078407950718F32FEF3FEFEE
:1011B000C901DF91CF910895CF93DF93EC01CE0168
:1011C0000E94B0089C0197FD0FC08D32910561F01F
:1011D000C0978A30910540F0E881F9810680F78157
:1011E000E02DCE010995EBCFC901DF91CF91089594
:1011F0009F92AF92BF92CF92DF92EF92FF920F93A6
:101200001F93CF93DF936C01A62E0E94DC08EC01A4
:1012100097FD4EC0EE24FF2487019924BB24A7FC30
:10122000B094CA15DB0531F1CD32D10509F1CE01FB
:10123000C0978A309105F0F4C801B7012AE030E088
:1012400040E050E00E94D00A7B018C01CE01AA2729
:1012500097FDA095BA2FE80EF91E0A1F1B1F80EDFF
:101260009FEFAFEFBFEFE80EF91E0A1F1B1F02C072
:1012700099249394D601ED91FC910680F781E02D9D
:10128000C6010995C6010E94B008EC01C0978A30DA
:10129000910538F2CA15DB0521F2992061F010950D
:1012A0000095F094E094E11CF11C011D111D03C098
:1012B000EE24FF248701B701C801DF91CF911F9170
:1012C0000F91FF90EF90DF90CF90BF90AF909F90E5
:1012D000089561E00E94F80808958DE061E00E94A1
:1012E0007B058BE061E00E947B058AE061E00E9463
:1012F0007B058DE060E00E94C0058BE060E00E940D
:10130000C0058AE061E00E94C0058CB580618CBD9B
:101310008CB580648CBD0895882319F48CB58062E7
:1013200002C08CB58F7D8CBD08959CB5937F982BA2
:101330009CBD08952CB5982F93702C7F922B9CBD4B
:101340002DB590E0959587959595879581702E7F21
:10135000822B8DBD0895F8940C94170B0CD0E6C029
:10136000DED040F0D5D030F021F45F3F19F0C7C097
:10137000511110C1CAC0EBD098F39923C9F355237A
:10138000B1F3951B550BBB27AA2762177307840778
:1013900038F09F5F5F4F220F331F441FAA1FA9F32E
:1013A00033D00E2E3AF0E0E830D091505040E69520
:1013B000001CCAF729D0FE2F27D0660F771F881F81
:1013C000BB1F261737074807AB07B0E809F0BB0B70
:1013D000802DBF01FF2793585F4F2AF09E3F510594
:1013E00068F08DC0D7C05F3FECF3983EDCF3869584
:1013F00077956795B795F7959F5FC9F7880F911D0A
:101400009695879597F90895E1E0660F771F881FF5
:10141000BB1F621773078407BA0720F0621B730BA8
:10142000840BBA0BEE1F88F7E095089598D088F0EA
:101430009F5790F0B92F9927B751A0F0D1F0660FC0
:10144000771F881F991F1AF0BA95C9F712C0B130DB
:1014500081F09FD0B1E008959CC0672F782F882736
:10146000B85F39F0B93FCCF3869577956795B3951A
:10147000D9F73EF490958095709561957F4F8F4F89
:101480009F4F0895E89409C097FB3EF4909580958E
:10149000709561957F4F8F4F9F4F9923A9F0F92F3A
:1014A00096E9BB279395F695879577956795B795B8
:1014B000F111F8CFFAF4BB0F11F460FF1BC06F5F9E
:1014C0007F4F8F4F9F4F16C0882311F096E911C0B0
:1014D000772321F09EE8872F762F05C0662371F0D1
:1014E00096E8862F70E060E02AF09A95660F771FE5
:1014F000881FDAF7880F9695879597F9089597F9D9
:101500009F6780E870E060E008959FEF80EC0895A9
:1015100000240A94161617061806090608950024D2
:101520000A9412161306140605060895092E03944C
:10153000000C11F4882352F0BB0F40F4BF2B11F4C0
:1015400060FF04C06F5F7F4F8F4F9F4F089557FD1F
:101550009058440F551F59F05F3F71F04795880F21
:1015600097FB991F61F09F3F79F0879508951216B8
:1015700013061406551FF2CF4695F1DF08C0161664
:1015800017061806991FF1CF869571056105089415
:101590000895E894BB2766277727CB0197F908952C
:1015A000629FD001739FF001829FE00DF11D649F47
:1015B000E00DF11D929FF00D839FF00D749FF00DD3
:1015C000659FF00D9927729FB00DE11DF91F639F74
:1015D000B00DE11DF91FBD01CF0111240895A1E255
:1015E0001A2EAA1BBB1BFD010DC0AA1FBB1FEE1F9D
:1015F000FF1FA217B307E407F50720F0A21BB30BE8
:10160000E40BF50B661F771F881F991F1A9469F763
:1016100060957095809590959B01AC01BD01CF01BF
:101620000895EE0FFF1F0590F491E02D0994F894B2
:02163000FFCFEA
:101632002000010101000000005D06E207F8052715
:06164200060B064906003C
:00000001FF
