:100000000C9463000C948B000C948B000C948B006C
:100010000C948B000C948B000C948B000C948B0034
:100020000C948B000C948B000C948B000C948B0024
:100030000C948B000C948B000C948B000C948B0014
:100040000C944E040C948B000C9463060C94940650
:100050000C948B000C948B000C948B000C948B00F4
:100060000C948B000C948B000000000024002700EF
:100070002A0000000000250028002B0000000000DE
:1000800023002600290004040404040404040202DA
:100090000202020203030303030301020408102007
:1000A0004080010204081020010204081020000012
:1000B0000007000201000003040600000000000029
:1000C0000000C1034D0711241FBECFEFD8E0DEBFF3
:1000D000CDBF11E0A0E0B1E0E0EAF5E102C005909B
:1000E0000D92A631B107D9F711E0A6E1B1E001C048
:1000F0001D92A83EB107E1F710E0C6ECD0E004C0C5
:100100002297FE010E94CA0AC23CD107C9F70E9489
:100110008A070C9462090C9400008EBD0DB407FE92
:10012000FDCF8EB50895CF93DF93EC01862F6883C2
:1001300079835B834A8361E00E9432058A8161E0B2
:100140000E943205888161E00E9477058A8161E022
:100150000E947705DF91CF910895EF92FF921F9350
:10016000DF93CF9300D00F92CDB7DEB77C01162F6F
:10017000FC01808160E04A8359837B830E9477057C
:100180005981852F0E948D004A81842F0E948D0005
:100190007B81872F0E948D00812F0E948D00F701A7
:1001A000808161E00E947705F701828160E00E9412
:1001B0007705F701828161E00E9477050F900F902B
:1001C0000F90CF91DF911F91FF90EF900895DB0189
:1001D0000D900020E9F7AD0141505040461B570BF0
:1001E000DC01ED91FC910280F381E02D09950895E9
:1001F00010922001109221011092220110922301ED
:1002000087E061E00E94320589EC91E040E052EC29
:1002100061E070E00E94CF0683E061E00E94320559
:1002200080E00E944C0981E00E94430984E00E9422
:1002300051090E9424098091200183FD04C087E0B8
:1002400060E00E94770560911A0170911B01409156
:100250001C0150911D0186E191E00E94AD0083E0F8
:100260000E94CA030E94A40460932C0170932D0184
:1002700080932E0190932F010895CF93DF93EA018D
:10028000F901611571058105910551F410828FEF17
:100290009FEFA0E0B0E088839983AA83BB831EC050
:1002A00097FF0AC02FEF20839095809570956195F8
:1002B0007F4F8F4F9F4F02C021E020830E94FB0998
:1002C0009B01AC0160E074E284E799E40E94650957
:1002D0000E94CD09688379838A839B83DF91CF91C4
:1002E00008952F923F924F925F926F927F928F92DA
:1002F0009F92AF92BF92CF92DF92EF92FF920F93B5
:100300001F93DF93CF9300D000D0CDB7DEB70E940C
:10031000A40469837A838B839C838091200182FF6C
:10032000C0C0209030013090310140903201509097
:10033000330169817A818B819C81621973098409F7
:100340009509209134013091350140913601509149
:10035000370169807A808B809C80621A730A840AD4
:10036000950A6115710581059105F1F1E09024016F
:10037000F09025010091260110912701A801970115
:100380000E94A60A59016A01A114B104C104D10452
:1003900059F180910201992787FD9095829FB001C4
:1003A000839F700D929F700D112480911A0190917E
:1003B0001B01860F971F90931B0180931A01B901AF
:1003C000CA01A80197010E94870A620D731D841D4E
:1003D000951D6093300170933101809332019093A9
:1003E0003301DD24D39401C0DD2461147104810440
:1003F000910409F448C0E0902801F090290100918F
:100400002A0110912B01C401B301A80197010E9498
:10041000A60A49015A0181149104A104B10499F179
:10042000A0910301BB27A7FDB095A29FF001A39F58
:10043000F00DB29FF00D112480911C0190911D01CF
:100440008E0F9F1F90931D0180931C01B901CA015B
:10045000A80197010E94870A9B01AC018091340199
:1004600090913501A0913601B0913701820F931F11
:10047000A41FB51F8093340190933501A0933601DA
:10048000B093370102C0DD2061F060911A017091D4
:100490001B0140911C0150911D0186E191E00E94D9
:1004A000AD0010E0DDC089EC91E00E942009162F1C
:1004B00089EC91E00E942009062FB72E982EA92ED4
:1004C00089EC91E00E9420096B017C0189EC91E0AC
:1004D0000E942009862E89EC91E00E94DE058A3078
:1004E000910509F0BDC01130F1F580912001909186
:1004F0002101A0912201B09123019C01AD01216055
:100500002093200130932101409322015093230135
:1005100000FF09C083608093200190932101A09384
:100520002201B093230101FF11C08091200190911D
:100530002101A0912201B0912301886080932001C4
:1005400090932101A0932201B093230110921F01E7
:1005500010921E0110921D0110921C0110921B019D
:1005600010921A016CC08091200190912101A091FC
:100570002201B091230111FF48C0846080932001C3
:1005800090932101A0932201B0932301602F7B2D32
:10059000892D9A2D44E251E022E031E00E943D0194
:1005A000C701B60148E251E023E031E00E943D017D
:1005B0000E94A4042091240130912501409126013C
:1005C000509127016B017C01C21AD30AE40AF50A93
:1005D000C0923001D0923101E0923201F0923301A9
:1005E000209128013091290140912A0150912B013D
:1005F000621B730B840B950B609334017093350170
:1006000080933601909337011AC08B7F809320012D
:1006100090932101A0932201B0932301802F9B2D61
:1006200090931B0180931A01D0921D01C0921C016E
:1006300086E191E0602F7B2DA6010E94AD008091A4
:10064000200183FF06C083E0682D70E00E94EE0366
:1006500007C061E0882009F460E087E00E94770528
:1006600089EC91E00E94AF05181619060CF41BCF17
:1006700080912C0190912D01A0912E01B0912F011C
:10068000112399F429813A814B815C81281B390B14
:100690004A0B5B0BDA01C901813A36E8930731E076
:1006A000A30730E0B30708F455C08091200181FF13
:1006B00007C08EE00E94CD0390931F0180931E011E
:1006C00040912001509121016091220170912301FC
:1006D00089EC91E02AE030E00E943A0889EC91E050
:1006E00060E071E00E94E70060911A0170911B01C7
:1006F00089EC91E04AE050E00E94490889EC91E0E1
:1007000060E071E00E94E70060911C0170911D01A2
:1007100089EC91E04AE050E00E94490889EC91E0C0
:1007200060E071E00E94E70060911E0170911F017E
:1007300089EC91E04AE050E00E94500889819A815A
:10074000AB81BC8180932C0190932D01A0932E014D
:10075000B0932F010F900F900F900F90CF91DF91DA
:100760001F910F91FF90EF90DF90CF90BF90AF90CF
:100770009F908F907F906F905F904F903F902F90C1
:10078000089586E191E06AE070E049E050E00E945F
:10079000930008958093040108958E3008F08E50E0
:1007A0008770909104019295990F990F907C982BE6
:1007B00090937C0080917A00806480937A0080918D
:1007C0007A0086FDFCCF2091780030917900932F3C
:1007D00080E030E0282B392BC90108951F93CF9377
:1007E000DF93182FEB0161E00E943205209709F496
:1007F0004AC0CF3FD10509F449C0E12FF0E0E255EE
:10080000FF4FE491E330C1F0E43028F4E13051F0DF
:10081000E230B1F50CC0E63019F1E73049F1E430CF
:1008200079F514C084B5806884BDC7BD33C084B574
:10083000806284BDC8BD2EC0809180008068809396
:100840008000D0938900C093880024C080918000EC
:10085000806280938000D0938B00C0938A001AC07E
:100860008091B00080688093B000C093B30012C044
:100870008091B00080628093B000C093B4000AC041
:10088000C038D1051CF4812F60E002C0812F61E0E7
:100890000E947705DF91CF911F9108951F920F92CB
:1008A0000FB60F9211242F933F938F939F93AF9383
:1008B000BF9380913C0190913D01A0913E01B09188
:1008C0003F01309140010196A11DB11D232F2D5FE5
:1008D0002D3720F02D570196A11DB11D2093400109
:1008E00080933C0190933D01A0933E01B0933F0162
:1008F0008091380190913901A0913A01B0913B016A
:100900000196A11DB11D8093380190933901A093E8
:100910003A01B0933B01BF91AF919F918F913F916D
:100920002F910F900FBE0F901F9018958FB7F894CE
:1009300020913C0130913D0140913E0150913F0199
:100940008FBFB901CA0108959FB7F894209138016B
:100950003091390140913A0150913B0186B5A89BF5
:1009600006C08F3F21F02F5F3F4F4F4F5F4F9FBF1C
:10097000542F432F322F2227280F311D411D511D87
:1009800082E0220F331F441F551F8A95D1F7B9010A
:10099000CA010895789484B5826084BD84B581606D
:1009A00084BD85B5826085BD85B5816085BDEEE677
:1009B000F0E0808181608083E1E8F0E01082808156
:1009C00082608083808181608083E0E8F0E08081C4
:1009D00081608083E1EBF0E0808184608083E0EBE4
:1009E000F0E0808181608083EAE7F0E080818460CC
:1009F0008083808182608083808181608083808128
:100A0000806880831092C1000895833071F0843033
:100A100028F48130A1F0823021F514C08630B1F085
:100A20008730D1F08430E9F404C0809180008F7762
:100A300003C0809180008F7D80938000089584B5ED
:100A40008F7702C084B58F7D84BD08958091B000FA
:100A50008F778093B00008958091B0008F7D809350
:100A6000B0000895EF92FF92CF93DF9390E0FC01E6
:100A7000E656FF4F44918A579F4FFC01849188238B
:100A800089F190E0880F991FFC01E859FF4F2591EB
:100A90003491D9018E589F4FFC0125913491E22E5B
:100AA000E7017E01F32EE701662349F49FB7F8942E
:100AB0008C91409584238C93888184230BC0623071
:100AC00059F49FB7F8948C91242F209582238C930E
:100AD0008881842B888305C09FB7F8948C91842BE0
:100AE0008C939FBFDF91CF91FF90EF9008950F936C
:100AF0001F93DF93CF930F92CDB7DEB7282F30E04F
:100B0000F901E255FF4F8491F901E656FF4F149128
:100B10002A573F4FF90104910023D9F0882321F08F
:100B200069830E9405056981E02FF0E0EE0FFF1F49
:100B3000EE58FF4F85919491DC019FB7F89466239E
:100B400021F48C911095812302C08C91812B8C9380
:100B50009FBF0F90CF91DF911F910F910895FC01DE
:100B600084859585FC01E05CFF4F208131818E5B9F
:100B70009F4FFC0180819181281B390B2F733070AE
:100B8000C9010895FC0184859585FC01E05CFF4F57
:100B900040815181FC01EE5BFF4F20813181421782
:100BA000530741F00190F081E02DE80FF91F2081FB
:100BB00030E002C02FEF3FEFC9010895FC018485AA
:100BC0009585FC01E05CFF4F40815181FC01EE5BAB
:100BD000FF4F208131814217530771F0A081B1810D
:100BE000A80FB91F2C918081918101968F7390700D
:100BF0009183808330E002C02FEF3FEFC901089559
:100C0000DC011E968D919C911F97FC01E05CFF4FCB
:100C10008E5B9F4F40815181DC012D913C9111975A
:100C200042175307B9F70895FC0126853785D90186
:100C3000A05CBF4F8D919C9101968F739070D901EC
:100C4000AE5BBF4F4D915C91119784179507D1F31F
:100C5000D901A05CBF4F0D90BC91A02DA20FB31F76
:100C60006C93A685B785A05CBF4F11969C938E931D
:100C7000A689B7892C9181E090E0058C02C0880F8D
:100C8000991F0A94E2F7282B2C9381E090E00895B5
:100C9000FB01E05CFF4F208131812F5F3F4F2F73BD
:100CA0003070DB01AE5BBF4F4D915C911197241703
:100CB000350739F0A081B181A60FB71F8C9331831E
:100CC0002083089508951F920F920FB60F9211245A
:100CD0002F933F934F935F936F937F938F939F9344
:100CE000AF93BF93EF93FF938091C60061E471E0EF
:100CF0000E944806FF91EF91BF91AF919F918F9114
:100D00007F916F915F914F913F912F910F900FBE07
:100D10000F901F90189589EC91E00E94AF05009705
:100D200011F00E94620608951F920F920FB60F9263
:100D300011242F933F938F939F93EF93FF932091D1
:100D4000C5013091C6018091C7019091C801281753
:100D5000390731F48091C1008F7D8093C10014C0A8
:100D6000E091C701F091C801EB57FE4F20818091BF
:100D7000C7019091C80101968F7390709093C8013C
:100D80008093C7012093C600FF91EF919F918F91AF
:100D90003F912F910F900FBE0F901F901895DF92EB
:100DA000EF92FF920F931F93CF93DF93EC017A01A1
:100DB0008B01DD24D394403081EE580780E0680732
:100DC00080E0780749F4DD24EC89FD89108260E831
:100DD00074E88EE190E00FC0EC89FD8981E090E03D
:100DE0000E8C02C0880F991F0A94E2F7808360E09E
:100DF00079E08DE390E0A80197010E94A60A2150B6
:100E0000304040405040569547953795279580E1B2
:100E10002030380710F0DD20B1F6E889F9893083F9
:100E2000EA89FB892083EE89FF89408181E090E097
:100E30009C010A8C02C0220F331F0A94E2F7422B56
:100E40004083EE89FF8940819C010B8C02C0220FF8
:100E5000331F0A94E2F7422B4083EE89FF894081D9
:100E60009C010C8C02C0220F331F0A94E2F7422B24
:100E70004083EE89FF8920810D8C02C0880F991F65
:100E80000A94E2F7809582238083DF91CF911F91AE
:100E90000F91FF90EF90DF9008951092CC01109287
:100EA000CB0188EE93E0A0E0B0E08093CD01909379
:100EB000CE01A093CF01B093D001EBECF1E089E03B
:100EC00091E09293829381E491E09587848785E80D
:100ED00091E09787868785EC90E0918B808B84ECFE
:100EE00090E0938B828B80EC90E0958B848B81ECEF
:100EF00090E0978B868B86EC90E0918F808F84E0DA
:100F0000828F83E0838F87E0848F85E0858F81E007
:100F1000868F0895CF93DF930E94CA040E94F80041
:100F2000CBE8D6E00E9471012097E1F30E948B0686
:100F3000F9CFCF92DF92EF92FF920F931F93CF934F
:100F4000DF936C017B018A01C0E0D0E00FC0D701C4
:100F50006D917D01D601ED91FC910190F081E02D24
:100F6000C6010995C80FD91F015010400115110580
:100F700071F7CE01DF91CF911F910F91FF90EF900C
:100F8000DF90CF900895DC01ED91FC910190F0810C
:100F9000E02D099508950F931F93CF93DF93EC01F4
:100FA0006DE00E94C3078C01CE016AE00E94C30776
:100FB000080F191FC801DF91CF911F910F9108955C
:100FC0008F929F92AF92BF92CF92DF92EF92FF9259
:100FD0000F931F93DF93CF93CDB7DEB7A1970FB6D3
:100FE000F894DEBF0FBECDBF6C01042FE52FCB01FF
:100FF000122F19A2223008F41AE021E2E22EF12C7D
:10100000EC0EFD1E812E9924AA24BB2403C0022FBE
:10101000E32FCA01602F7E2FA50194010E94A60A2A
:10102000129F802D1124081B0894E108F1080A3052
:1010300014F4005D01C0095CF7010083211531053E
:101040004105510521F7C601B7010E94E700A196AD
:101050000FB6F894DEBF0FBECDBFCF91DF911F91C9
:101060000F91FF90EF90DF90CF90BF90AF909F9047
:101070008F9008952115310549F4DC01ED91FC9123
:101080000190F081E02D642F099508950E94E007FA
:1010900008959A01AB0160E070E00E943A0808955B
:1010A0000F931F93CF93DF93EC019A01AB0160E0A4
:1010B00070E00E943A088C01CE010E94CB07080F15
:1010C000191FC801DF91CF911F910F910895CF9300
:1010D000DF93EC010E949604688779878A879B8753
:1010E000E881F9810084F185E02DCE0109959C010C
:1010F00097FF15C00E949604288539854A855B852F
:10110000621B730B840B950B2C813D814E815F819B
:10111000621773078407950718F32FEF3FEFC90194
:10112000DF91CF910895CF93DF93EC01CE010E9420
:1011300067089C0197FD0FC08D32910561F0C09743
:101140008A30910540F0E881F9810680F781E02D31
:10115000CE010995EBCFC901DF91CF9108959F9200
:10116000AF92BF92CF92DF92EF92FF920F931F93B5
:10117000CF93DF936C01A62E0E949308EC0197FD9C
:101180004EC0EE24FF2487019924BB24A7FCB09411
:10119000CA15DB0531F1CD32D10509F1CE01C09779
:1011A0008A309105F0F4C801B7012AE030E040E050
:1011B00050E00E94870A7B018C01CE01AA2797FD8F
:1011C000A095BA2FE80EF91E0A1F1B1F80ED9FEF96
:1011D000AFEFBFEFE80EF91E0A1F1B1F02C09924D4
:1011E0009394D601ED91FC910680F781E02DC60124
:1011F0000995C6010E946708EC01C0978A309105E5
:1012000038F2CA15DB0521F2992061F0109500959E
:10121000F094E094E11CF11C011D111D03C0EE24AB
:10122000FF248701B701C801DF91CF911F910F9172
:10123000FF90EF90DF90CF90BF90AF909F90089578
:1012400061E00E94AF0808958DE061E00E943205E0
:101250008BE061E00E9432058AE061E00E94320585
:101260008DE060E00E9477058BE060E00E947705EA
:101270008AE061E00E9477058CB580618CBD8CB5F9
:1012800080648CBD0895882319F48CB5806202C0F7
:101290008CB58F7D8CBD08959CB5937F982B9CBD9C
:1012A00008952CB5982F93702C7F922B9CBD2DB553
:1012B00090E0959587959595879581702E7F822BE7
:1012C0008DBD0895F8940C94CE0A0CD0E6C0DED003
:1012D00040F0D5D030F021F45F3F19F0C7C0511174
:1012E00010C1CAC0EBD098F39923C9F35523B1F3C9
:1012F000951B550BBB27AA2762177307840738F085
:101300009F5F5F4F220F331F441FAA1FA9F333D0E3
:101310000E2E3AF0E0E830D091505040E695001C97
:10132000CAF729D0FE2F27D0660F771F881FBB1F53
:10133000261737074807AB07B0E809F0BB0B802D2D
:10134000BF01FF2793585F4F2AF09E3F510568F079
:101350008DC0D7C05F3FECF3983EDCF38695779560
:101360006795B795F7959F5FC9F7880F911D96957B
:10137000879597F90895E1E0660F771F881FBB1FD7
:10138000621773078407BA0720F0621B730B840B84
:10139000BA0BEE1F88F7E095089598D088F09F5714
:1013A00090F0B92F9927B751A0F0D1F0660F771FB1
:1013B000881F991F1AF0BA95C9F712C0B13081F091
:1013C0009FD0B1E008959CC0672F782F8827B85F21
:1013D00039F0B93FCCF3869577956795B395D9F7F2
:1013E0003EF490958095709561957F4F8F4F9F4FFC
:1013F0000895E89409C097FB3EF490958095709508
:1014000061957F4F8F4F9F4F9923A9F0F92F96E950
:10141000BB279395F695879577956795B795F111C5
:10142000F8CFFAF4BB0F11F460FF1BC06F5F7F4F62
:101430008F4F9F4F16C0882311F096E911C0772374
:1014400021F09EE8872F762F05C0662371F096E87D
:10145000862F70E060E02AF09A95660F771F881F4C
:10146000DAF7880F9695879597F9089597F99F670A
:1014700080E870E060E008959FEF80EC089500241C
:101480000A941616170618060906089500240A94E9
:1014900012161306140605060895092E0394000C6F
:1014A00011F4882352F0BB0F40F4BF2B11F460FFFE
:1014B00004C06F5F7F4F8F4F9F4F089557FD905827
:1014C000440F551F59F05F3F71F04795880F97FB08
:1014D000991F61F09F3F79F08795089512161306C2
:1014E0001406551FF2CF4695F1DF08C016161706F1
:1014F0001806991FF1CF8695710561050894089526
:10150000E894BB2766277727CB0197F90895629F58
:10151000D001739FF001829FE00DF11D649FE00DEB
:10152000F11D929FF00D839FF00D749FF00D659F4C
:10153000F00D9927729FB00DE11DF91F639FB00D4B
:10154000E11DF91FBD01CF0111240895A1E21A2E5A
:10155000AA1BBB1BFD010DC0AA1FBB1FEE1FFF1F57
:10156000A217B307E407F50720F0A21BB30BE40BA7
:10157000F50B661F771F881F991F1A9469F76095EE
:101580007095809590959B01AC01BD01CF010895A8
:10159000EE0FFF1F0590F491E02D0994F894FFCF12
:1015A00020000101010000000014069907AF05DECC
:0615B00005C20500060063
:00000001FF
